{
  "address": "0x5FbDB2315678afecb367f032d93F642f64180aa3",
  "abi": [
    {
      "inputs": [
        {
          "internalType": "uint256",
          "name": "entranceFees",
          "type": "uint256"
        }
      ],
      "stateMutability": "nonpayable",
      "type": "constructor"
    },
    {
      "inputs": [],
      "name": "details__NotSufficientAge",
      "type": "error"
    },
    {
      "inputs": [],
      "name": "details__NotSufficientAmount",
      "type": "error"
    },
    {
      "inputs": [],
      "name": "details__SeatsFullfilled",
      "type": "error"
    },
    {
      "inputs": [
        {
          "internalType": "string",
          "name": "name",
          "type": "string"
        },
        {
          "internalType": "uint16",
          "name": "age",
          "type": "uint16"
        },
        {
          "internalType": "uint256",
          "name": "id",
          "type": "uint256"
        },
        {
          "internalType": "string",
          "name": "add",
          "type": "string"
        }
      ],
      "name": "EntreDetails",
      "outputs": [],
      "stateMutability": "payable",
      "type": "function"
    },
    {
      "inputs": [
        {
          "internalType": "uint256",
          "name": "index",
          "type": "uint256"
        }
      ],
      "name": "ShowDetails",
      "outputs": [
        {
          "components": [
            {
              "internalType": "string",
              "name": "Name",
              "type": "string"
            },
            {
              "internalType": "uint16",
              "name": "Age",
              "type": "uint16"
            },
            {
              "internalType": "uint256",
              "name": "Id",
              "type": "uint256"
            },
            {
              "internalType": "string",
              "name": "Address",
              "type": "string"
            }
          ],
          "internalType": "struct data.Details",
          "name": "",
          "type": "tuple"
        }
      ],
      "stateMutability": "view",
      "type": "function"
    },
    {
      "inputs": [],
      "name": "ShowTotalFunds",
      "outputs": [
        {
          "internalType": "uint256",
          "name": "",
          "type": "uint256"
        }
      ],
      "stateMutability": "view",
      "type": "function"
    },
    {
      "inputs": [
        {
          "internalType": "address",
          "name": "account",
          "type": "address"
        }
      ],
      "name": "balanceOf",
      "outputs": [
        {
          "internalType": "uint256",
          "name": "",
          "type": "uint256"
        }
      ],
      "stateMutability": "view",
      "type": "function"
    },
    {
      "inputs": [],
      "name": "getDetailCount",
      "outputs": [
        {
          "internalType": "uint256",
          "name": "",
          "type": "uint256"
        }
      ],
      "stateMutability": "view",
      "type": "function"
    },
    {
      "inputs": [],
      "name": "getEntranceFees",
      "outputs": [
        {
          "internalType": "uint256",
          "name": "",
          "type": "uint256"
        }
      ],
      "stateMutability": "view",
      "type": "function"
    }
  ],
  "transactionHash": "0xa05ebabe9b59ea8280dcdf9f582bd4ee0925ab8b70d16e1927a46c88c13907d6",
  "args": [
    1
  ],
  "numDeployments": 1,
  "solcInputHash": "68c39f3585ba4b9476e432acea24d1ed",
  "bytecode": "0x60a060405234801561001057600080fd5b50604051610cd9380380610cd983398181016040528101906100329190610055565b8060808181525050506100a8565b60008151905061004f81610091565b92915050565b60006020828403121561006b5761006a61008c565b5b600061007984828501610040565b91505092915050565b6000819050919050565b600080fd5b61009a81610082565b81146100a557600080fd5b50565b608051610c086100d16000396000818161035f015281816103ae01526104540152610c086000f3fe6080604052600436106100555760003560e01c80632a7332891461005a5780634a26d4f41461009757806370a08231146100c25780639ff3d06e146100ff578063e4864d531461012a578063f126b6b614610146575b600080fd5b34801561006657600080fd5b50610081600480360381019061007c9190610840565b610171565b60405161008e919061093d565b60405180910390f35b3480156100a357600080fd5b506100ac61035b565b6040516100b9919061095f565b60405180910390f35b3480156100ce57600080fd5b506100e960048036038101906100e49190610774565b610383565b6040516100f6919061095f565b60405180910390f35b34801561010b57600080fd5b506101146103a4565b604051610121919061095f565b60405180910390f35b610144600480360381019061013f91906107a1565b6103ac565b005b34801561015257600080fd5b5061015b6105e9565b604051610168919061095f565b60405180910390f35b6101796105f6565b60006001838154811061018f5761018e610b0a565b5b9060005260206000200160009054906101000a900473ffffffffffffffffffffffffffffffffffffffff1690506000808273ffffffffffffffffffffffffffffffffffffffff1673ffffffffffffffffffffffffffffffffffffffff16815260200190815260200160002060405180608001604052908160008201805461021590610a78565b80601f016020809104026020016040519081016040528092919081815260200182805461024190610a78565b801561028e5780601f106102635761010080835404028352916020019161028e565b820191906000526020600020905b81548152906001019060200180831161027157829003601f168201915b505050505081526020016001820160009054906101000a900461ffff1661ffff1661ffff168152602001600282015481526020016003820180546102d190610a78565b80601f01602080910402602001604051908101604052809291908181526020018280546102fd90610a78565b801561034a5780601f1061031f5761010080835404028352916020019161034a565b820191906000526020600020905b81548152906001019060200180831161032d57829003601f168201915b505050505081525050915050919050565b60007f0000000000000000000000000000000000000000000000000000000000000000905090565b60008173ffffffffffffffffffffffffffffffffffffffff16319050919050565b600047905090565b7f000000000000000000000000000000000000000000000000000000000000000034106105e35760128361ffff161015610412576040517fe98c86bf00000000000000000000000000000000000000000000000000000000815260040160405180910390fd5b60196001805490501115610452576040517fc27a535d00000000000000000000000000000000000000000000000000000000815260040160405180910390fd5b7f00000000000000000000000000000000000000000000000000000000000000003410156104ac576040517fb34b091700000000000000000000000000000000000000000000000000000000815260040160405180910390fd5b600060405180608001604052808681526020018561ffff168152602001848152602001838152509050806000803373ffffffffffffffffffffffffffffffffffffffff1673ffffffffffffffffffffffffffffffffffffffff1681526020019081526020016000206000820151816000019080519060200190610530929190610622565b5060208201518160010160006101000a81548161ffff021916908361ffff16021790555060408201518160020155606082015181600301908051906020019061057a929190610622565b509050506001339080600181540180825580915050600190039060005260206000200160009091909190916101000a81548173ffffffffffffffffffffffffffffffffffffffff021916908373ffffffffffffffffffffffffffffffffffffffff160217905550505b50505050565b6000600180549050905090565b604051806080016040528060608152602001600061ffff16815260200160008152602001606081525090565b82805461062e90610a78565b90600052602060002090601f0160209004810192826106505760008555610697565b82601f1061066957805160ff1916838001178555610697565b82800160010185558215610697579182015b8281111561069657825182559160200191906001019061067b565b5b5090506106a491906106a8565b5090565b5b808211156106c15760008160009055506001016106a9565b5090565b60006106d86106d38461099f565b61097a565b9050828152602081018484840111156106f4576106f3610b6d565b5b6106ff848285610a36565b509392505050565b60008135905061071681610b8d565b92915050565b600082601f83011261073157610730610b68565b5b81356107418482602086016106c5565b91505092915050565b60008135905061075981610ba4565b92915050565b60008135905061076e81610bbb565b92915050565b60006020828403121561078a57610789610b77565b5b600061079884828501610707565b91505092915050565b600080600080608085870312156107bb576107ba610b77565b5b600085013567ffffffffffffffff8111156107d9576107d8610b72565b5b6107e58782880161071c565b94505060206107f68782880161074a565b93505060406108078782880161075f565b925050606085013567ffffffffffffffff81111561082857610827610b72565b5b6108348782880161071c565b91505092959194509250565b60006020828403121561085657610855610b77565b5b60006108648482850161075f565b91505092915050565b6000610878826109d0565b61088281856109db565b9350610892818560208601610a45565b61089b81610b7c565b840191505092915050565b600060808301600083015184820360008601526108c3828261086d565b91505060208301516108d86020860182610910565b5060408301516108eb604086018261091f565b5060608301518482036060860152610903828261086d565b9150508091505092915050565b610919816109fe565b82525050565b61092881610a2c565b82525050565b61093781610a2c565b82525050565b6000602082019050818103600083015261095781846108a6565b905092915050565b6000602082019050610974600083018461092e565b92915050565b6000610984610995565b90506109908282610aaa565b919050565b6000604051905090565b600067ffffffffffffffff8211156109ba576109b9610b39565b5b6109c382610b7c565b9050602081019050919050565b600081519050919050565b600082825260208201905092915050565b60006109f782610a0c565b9050919050565b600061ffff82169050919050565b600073ffffffffffffffffffffffffffffffffffffffff82169050919050565b6000819050919050565b82818337600083830152505050565b60005b83811015610a63578082015181840152602081019050610a48565b83811115610a72576000848401525b50505050565b60006002820490506001821680610a9057607f821691505b60208210811415610aa457610aa3610adb565b5b50919050565b610ab382610b7c565b810181811067ffffffffffffffff82111715610ad257610ad1610b39565b5b80604052505050565b7f4e487b7100000000000000000000000000000000000000000000000000000000600052602260045260246000fd5b7f4e487b7100000000000000000000000000000000000000000000000000000000600052603260045260246000fd5b7f4e487b7100000000000000000000000000000000000000000000000000000000600052604160045260246000fd5b600080fd5b600080fd5b600080fd5b600080fd5b6000601f19601f8301169050919050565b610b96816109ec565b8114610ba157600080fd5b50565b610bad816109fe565b8114610bb857600080fd5b50565b610bc481610a2c565b8114610bcf57600080fd5b5056fea2646970667358221220794cf81cdfab352aa3daf14fe1df2255e38f6fba618be087a5e2f3ea78c6eee164736f6c63430008070033",
  "devdoc": {
    "kind": "dev",
    "methods": {},
    "version": 1
  },
  "userdoc": {
    "kind": "user",
    "methods": {},
    "version": 1
  },
  "storageLayout": {
    "storage": [
      {
        "astId": 23,
        "contract": "contracts/details.sol:data",
        "label": "s_details",
        "offset": 0,
        "slot": "0",
        "type": "t_mapping(t_address,t_struct(Details)18_storage)"
      },
      {
        "astId": 26,
        "contract": "contracts/details.sol:data",
        "label": "s_players",
        "offset": 0,
        "slot": "1",
        "type": "t_array(t_address)dyn_storage"
      }
    ],
    "types": {
      "t_address": {
        "encoding": "inplace",
        "label": "address",
        "numberOfBytes": "20"
      },
      "t_array(t_address)dyn_storage": {
        "base": "t_address",
        "encoding": "dynamic_array",
        "label": "address[]",
        "numberOfBytes": "32"
      },
      "t_mapping(t_address,t_struct(Details)18_storage)": {
        "encoding": "mapping",
        "key": "t_address",
        "label": "mapping(address => struct data.Details)",
        "numberOfBytes": "32",
        "value": "t_struct(Details)18_storage"
      },
      "t_string_storage": {
        "encoding": "bytes",
        "label": "string",
        "numberOfBytes": "32"
      },
      "t_struct(Details)18_storage": {
        "encoding": "inplace",
        "label": "struct data.Details",
        "members": [
          {
            "astId": 11,
            "contract": "contracts/details.sol:data",
            "label": "Name",
            "offset": 0,
            "slot": "0",
            "type": "t_string_storage"
          },
          {
            "astId": 13,
            "contract": "contracts/details.sol:data",
            "label": "Age",
            "offset": 0,
            "slot": "1",
            "type": "t_uint16"
          },
          {
            "astId": 15,
            "contract": "contracts/details.sol:data",
            "label": "Id",
            "offset": 0,
            "slot": "2",
            "type": "t_uint256"
          },
          {
            "astId": 17,
            "contract": "contracts/details.sol:data",
            "label": "Address",
            "offset": 0,
            "slot": "3",
            "type": "t_string_storage"
          }
        ],
        "numberOfBytes": "128"
      },
      "t_uint16": {
        "encoding": "inplace",
        "label": "uint16",
        "numberOfBytes": "2"
      },
      "t_uint256": {
        "encoding": "inplace",
        "label": "uint256",
        "numberOfBytes": "32"
      }
    }
  }
}